:100AB800000000000000000101010100000000002A
:0A0AC8000001020203030404050507
:1005F800E4F513F512F511F510F518C203C200D28F
:1006080002C20112080090E6807408F07FE87E03B9
:10061800120080E58030E003431801E58030E103F3
:10062800431802E58030E303431804E58030E7030C
:100638004318087E017F008E238F24752B01752CAB
:1006480012752D01752EAAE518900AB89314700E2C
:1006580075210175225C752901752A83800C752125
:100668000175221C752901752A3CEE54E0700302BD
:1006780007727514007515807E017F008E168F171E
:10068800C374D29FFF74039ECF2402CF3400FEE4CC
:100698008F0F8E0EF50DF50CF50BF50AF509F5081B
:1006A800AF0FAE0EAD0DAC0CAB0BAA0AA909A8088A
:1006B800C3120B3C5026E515250BF582E514350AC7
:1006C800F58374CDF0E50B2401F50BE4350AF50A42
:1006D800E43509F509E43508F50880C4E4F50BF5B7
:1006E8000AF509F508AF0FAE0EAD0DAC0CAB0BAAB1
:1006F8000AA909A808C3120B3C5033E517250BF5C6
:1007080082E516350AF583E0FFE515250BF582E548
:1007180014350AF583EFF0E50B2401F50BE4350AEF
:10072800F50AE43509F509E43508F50880B77400D9
:100738002480FF740134FFFE851423851524C3E546
:100748002C9FF52CE52B9EF52BC3E52E9FF52EE56A
:100758002D9EF52DC3E5229FF522E5219EF521C3A7
:10076800E52A9FF52AE5299EF529E5182405FFE5E0
:1007780024240FF582E43523F583EFF0D2E843D83B
:100788002090E668E04409F090E65CE0443DF0D251
:10079800AF90E680E04402F07FF47E011200809082
:1007A800E65D74FFF090E65FF05391EF90E680E02D
:1007B80054F7F07F647E00120080538EF8C2033035
:1007C80001051203D4C201300329120B695024C257
:1007D800031209C420001690E682E030E704E02006
:1007E800E1EF90E682E030E604E020E0E41209451B
:0807F800120B6B1209FF80C710
:1003D40090E6B9E070030204851470030205022458
:1003E400FE700302058524FB700302047F1470036E
:1003F400020479146073146076240560030205E432
:10040400120B6D40030205F090E6BBE024FE60226F
:1004140014603324FD601114602224067048E5231F
:1004240090E6B3F0E5248037E52B90E6B3F0E52CB5
:10043400802DE52590E6B3F0E5268023E52790E6B8
:10044400B3F0E528801990E6BAE0FF120971AA0614
:10045400A9077B01EA494B600DEE90E6B3F0EF90FB
:10046400E6B4F00205F00205E9120B2A0205F012C7
:100474000B610205F0120B590205F0120B1802056C
:10048400F0120B6F40030205F090E6B8E0247F60A1
:100494001514601924027063A200E43325E0FFA25E
:1004A40002E4334F8041E490E740F0803F90E6BCA3
:1004B400E0547EFF7E00E0D394807C0040047D0104
:1004C40080027D00EC4EFEED4F24C8F582740A3E96
:1004D400F583E493FF3395E0FEEF24A1FFEE34E6C9
:1004E4008F82F583E0540190E740F0E4A3F090E6B6
:1004F4008AF090E68B7402F00205F00205E9120B13
:100504007140030205F090E6B8E024FE6016240270
:1005140060030205F090E6BAE0B40105C2000205EA
:10052400F00205E990E6BAE0705590E6BCE0547E2E
:10053400FF7E00E0D394807C0040047D0180027D36
:1005440000EC4EFEED4F24C8F582740A3EF583E4B8
:1005540093FF3395E0FEEF24A1FFEE34E68F82F59E
:1005640083E054FEF090E6BCE05480131313541F50
:10057400FFE0540F2F90E683F0E04420F0806D807C
:1005840064120B73506690E6B8E024FE60192402EE
:10059400705A90E6BAE0B40104D200804F90E6BAF3
:1005A400E064026047803E90E6BCE0547EFF7E003B
:1005B400E0D394807C0040047D0180027D00EC4EF9
:1005C400FEED4F24C8F582740A3EF583E493FF33AD
:1005D40095E0FEEF24A1FFEE34E68F82F5838008D8
:1005E40012099C500790E6A0E04401F090E6A0E0D8
:0305F4004480F050
:0105F70022E1
:030033000200FCCC
:0400FC0053D8EF32B4
:1008000090E6007412F000000090E60B7403F00014
:100810000000E490E670F090E68274C5F0E4F5B272
:10082000F58000000090E60174C3F0000000E49041
:10083000E609F000000090E6107420F0000000903F
:10084000E611F000000090E61274A2F0000000E44F
:1008500090E618F000000090E6047480F0000000BC
:100860007402F0000000E4F000000090E649748299
:10087000F0000000F000000090E6187410F0000096
:100880000090E61374A2F0000000E490E619F00076
:10089000000090E6047480F00000007404F0000092
:1008A00000E4F000000090E6497484F0000000F0DD
:1008B00000000090E6197410F000000090E6147437
:1008C000E2F000000090E6047480F000000074067E
:1008D000F0000000E4F000000090E61A740CF00054
:1008E000000090E6157420F0000000E490E61BF094
:1008F00000000090E60274A8F000000090E6037487
:0809000009F0000000D2002202
:0109FF0022D5
:020B6900D32295
:020B6B00D32293
:020B6D00D32291
:080B590090E6BAE0F51CD3227E
:100B180090E740E51CF0E490E68AF090E68B04F05C
:020B2800D322D6
:080B610090E6BAE0F51BD32277
:100B2A0090E740E51BF0E490E68AF090E68B04F04B
:020B3A00D322C4
:020B6F00D3228F
:020B7100D3228D
:020B7300D3228B
:10099C0090E6B9E0242F600D04701990E604E0FF96
:1009AC00430780800890E604E0FF53077F000000B7
:0709BC00EFF08002D322C31B
:0109C3002211
:100AD200C0E0C083C082D2015391EF90E65D740101
:080AE200F0D082D083D0E03295
:1009E900C0E0C083C0825391EF90E65D7404F0D0FB
:0609F90082D083D0E03241
:100B0200C0E0C083C0825391EF90E65D7402F0D0E2
:060B120082D083D0E03226
:1000C600C0E0C083C082852925852A2685268285AB
:1000D6002583A37402F08521278522288528828519
:1000E6002783A37407F05391EF90E65D7410F0D068
:0600F60082D083D0E0324D
:100AEA00C0E0C083C082D2035391EF90E65D7408E0
:080AFA00F0D082D083D0E0327D
:10090800C0E0C083C08290E680E030E720852125E2
:10091800852226852682852583A37402F0852927CA
:10092800852A28852882852783A37407F05391EFA9
:0D09380090E65D7420F0D082D083D0E032D4
:010B7500324D
:010B7600324C
:010B7700324B
:010B7800324A
:010B79003249
:010B7A003248
:010B7B003247
:010B7C003246
:010B7D003245
:010B7E003244
:010B7F003243
:010B80003242
:010B81003241
:010B82003240
:010B8300323F
:010B8400323E
:010B8500323D
:010B8600323C
:010B8700323B
:010B8800323A
:010B89003239
:010B8A003238
:010B8B003237
:010B8C003236
:010B8D003235
:010B8E003234
:010B8F003233
:010B90003232
:010B91003231
:010B92003230
:010B9300322F
:010B9400322E
:010B9500322D
:010B9600322C
:010B9700322B
:010B9800322A
:1001000012010002FFFFFF40B40412860001011437
:1001100002010A060002FFFFFF4001000902200061
:10012000010103C0320904000002FF0000000705BE
:1001300002021000000705860210000009022000DC
:10014000010104C0320904000002FF00000007059D
:1001500002021000000705860210000009022700B5
:10016000010103C0320904000003FF00000007057D
:1001700002020002000705040200020007058602D1
:1001800000020009022700010104C0320904000036
:1001900003FF000000070502020002000705040239
:1001A00000020007058602000200040309040A0396
:1001B00044004300530043000E0330002E00320081
:1001C0002E00310030001603480069006700680007
:1001D000200073007000650065006400160346008F
:1001E00075006C006C0020007300700065006500F5
:1001F000640016034D006F0070007300200028009B
:1002000030002E00300029002003420061006C0005
:100210006C0050006C006100740065002000280034
:1002200030002E00310029001A03480075004200FA
:100230006F00610074002000280030002E003200A2
:1002400029001E03500065006E00640075006C00FC
:1002500075006D002000280030002E0033002900BA
:10026000200345006E0063006400650072005000CA
:1002700057004D002000280030002E0034002900D7
:100280002003460055004700490062006F006100EE
:10029000720064002000280030002E003500290084
:1002A0002003460055004700490062006F006100CE
:1002B000720064002000280030002E003600290063
:1002C00018035300700069006E00650020002800CC
:1002D00031002E0037002900180353007000690018
:1002E00078006F002000280031002E00380029001F
:1002F0001E035300700069006E0065005300690022
:1003000078002000280031002E00390029001A034F
:100310005300700069006E00650020002800310065
:100320002E0031003000290022034600550047000E
:10033000490062006F006100720064002000280024
:1003400030002E0031003200290022034600550003
:100350004700490062006F006100720064002000E5
:10036000280030002E003100320029002203460010
:1003700055004700490062006F0061007200640090
:100380002000280030002E00310033002900220315
:10039000460055004700490062006F00610072008E
:1003A00064002000280030002E00310034002900B5
:1003B0002203460055004700490062006F006100BB
:1003C000720064002000280030002E00310035004B
:0403D0002900000000
:03004300020A00AE
:03005300020A009E
:100A0000020AD200020B02000209E900020AEA000F
:100A10000200C60002090800020B7500020B7600F6
:100A2000020B7700020B7800020B7900020B7A00B0
:100A3000020B7B00020B7C00020B7D00020B7E0090
:100A4000020B7F00020B7600020B8000020B81007C
:100A5000020B8200020B8300020B8400020B850054
:100A6000020B8600020B7600020B7600020B76006A
:100A7000020B8700020B8800020B8900020B8A0020
:100A8000020B8B00020B8C00020B8D00020B8E0000
:100A9000020B8F00020B9000020B9100020B9200E0
:100AA000020B9300020B9400020B9500020B9600C0
:080AB000020B9700020B9800F5
:1009450090E682E030E004E020E60B90E682E030BD
:10095500E119E030E71590E680E04401F07F147E70
:0C0965000012008090E680E054FEF022BA
:100080008E198F1A90E600E054187012E51A2401B8
:10009000FFE43519C313F519EF13F51A801590E62F
:1000A00000E05418FFBF100BE51A25E0F51AE5191A
:1000B00033F519E51A151AAE19700215194E6005B7
:0600C0001209D880EE22B7
:02097100A907D4
:10097300AE2DAF2E8F828E83A3E064037017AD017B
:1009830019ED7001228F828E83E07C002FFDEC3EF7
:08099300FEAF0580DFE4FEFF6A
:01099B002239
:1009C40090E682E044C0F090E681F04387010000A5
:0409D40000000022FD
:1009D8007400F58690FDA57C05A3E582458370F932
:0109E80022EC
:03000000020B4DA3
:0C0B4D00787FE4F6D8FD75812E0205F8D3
:100B3C00EB9FF5F0EA9E42F0E99D42F0E89C45F00F
:010B4C002286
:00000001FF
